{
  "contractName": "Contactable",
  "abi": [
    {
      "constant": true,
      "inputs": [],
      "name": "contactInformation",
      "outputs": [
        {
          "name": "",
          "type": "string"
        }
      ],
      "payable": false,
      "stateMutability": "view",
      "type": "function"
    },
    {
      "constant": true,
      "inputs": [],
      "name": "owner",
      "outputs": [
        {
          "name": "",
          "type": "address"
        }
      ],
      "payable": false,
      "stateMutability": "view",
      "type": "function"
    },
    {
      "constant": false,
      "inputs": [
        {
          "name": "newOwner",
          "type": "address"
        }
      ],
      "name": "transferOwnership",
      "outputs": [],
      "payable": false,
      "stateMutability": "nonpayable",
      "type": "function"
    },
    {
      "anonymous": false,
      "inputs": [
        {
          "indexed": true,
          "name": "previousOwner",
          "type": "address"
        },
        {
          "indexed": true,
          "name": "newOwner",
          "type": "address"
        }
      ],
      "name": "OwnershipTransferred",
      "type": "event"
    },
    {
      "constant": false,
      "inputs": [
        {
          "name": "info",
          "type": "string"
        }
      ],
      "name": "setContactInformation",
      "outputs": [],
      "payable": false,
      "stateMutability": "nonpayable",
      "type": "function"
    }
  ],
  "bytecode": "0x6080604052600080546001600160a01b031916331790556103df806100256000396000f3fe608060405234801561001057600080fd5b506004361061004c5760003560e01c806336f7ab5e146100515780638da5cb5b146100ce578063b967a52e146100f2578063f2fde38b1461019a575b600080fd5b6100596101c0565b6040805160208082528351818301528351919283929083019185019080838360005b8381101561009357818101518382015260200161007b565b50505050905090810190601f1680156100c05780820380516001836020036101000a031916815260200191505b509250505060405180910390f35b6100d661024d565b604080516001600160a01b039092168252519081900360200190f35b6101986004803603602081101561010857600080fd5b81019060208101813564010000000081111561012357600080fd5b82018360208201111561013557600080fd5b8035906020019184600183028401116401000000008311171561015757600080fd5b91908080601f01602080910402602001604051908101604052809392919081815260200183838082843760009201919091525092955061025c945050505050565b005b610198600480360360208110156101b057600080fd5b50356001600160a01b031661028a565b60018054604080516020600284861615610100026000190190941693909304601f810184900484028201840190925281815292918301828280156102455780601f1061021a57610100808354040283529160200191610245565b820191906000526020600020905b81548152906001019060200180831161022857829003601f168201915b505050505081565b6000546001600160a01b031681565b6000546001600160a01b0316331461027357600080fd5b805161028690600190602084019061030f565b5050565b6000546001600160a01b031633146102a157600080fd5b6001600160a01b0381166102b457600080fd5b600080546040516001600160a01b03808516939216917f8be0079c531659141344cd1fd0a4f28419497f9722a3daafe3b4186f6b6457e091a3600080546001600160a01b0319166001600160a01b0392909216919091179055565b828054600181600116156101000203166002900490600052602060002090601f016020900481019282601f1061035057805160ff191683800117855561037d565b8280016001018555821561037d579182015b8281111561037d578251825591602001919060010190610362565b5061038992915061038d565b5090565b6103a791905b808211156103895760008155600101610393565b9056fea265627a7a723058203963f598ab73b650d7f20bb43a9743cb268a2e73a5cde57e320144ab6613eac264736f6c634300050a0032",
  "source": "pragma solidity ^0.5.10;\n\nimport \"./Ownable.sol\";\n\n\n/**\n * @title Contactable token\n * @dev Basic version of a contactable contract, allowing the owner to provide a string with their\n * contact information.\n */\ncontract Contactable is Ownable {\n\n  string public contactInformation;\n\n  /**\n    * @dev Allows the owner to set a string with their contact information.\n    * @param info The contact information to attach to the contract.\n    */\n  function setContactInformation(string memory info) onlyOwner public {\n    contactInformation = info;\n  }\n}\n",
  "sourcePath": "D:/projects/ethereum/crypto-bliz/token/crypto-bliz/contracts/openzeppelin-solidity/ownership/Contactable.sol",
  "compiler": {
    "name": "solc",
    "version": "0.5.10+commit.5a6ea5b1.Emscripten.clang"
  },
  "schemaVersion": "3.0.11",
  "updatedAt": "2019-07-10T17:06:18.586Z",
  "devdoc": {
    "details": "Basic version of a contactable contract, allowing the owner to provide a string with their contact information.",
    "methods": {
      "setContactInformation(string)": {
        "details": "Allows the owner to set a string with their contact information.",
        "params": {
          "info": "The contact information to attach to the contract."
        }
      },
      "transferOwnership(address)": {
        "details": "Allows the current owner to transfer control of the contract to a newOwner.",
        "params": {
          "newOwner": "The address to transfer ownership to."
        }
      }
    },
    "title": "Contactable token"
  },
  "userdoc": {
    "methods": {}
  }
}