{
  "contractName": "crypto-bliz",
  "abi": [
    {
      "constant": true,
      "inputs": [],
      "name": "MAX_TOKENS_SOLD",
      "outputs": [
        {
          "name": "",
          "type": "uint256"
        }
      ],
      "payable": false,
      "stateMutability": "view",
      "type": "function"
    },
    {
      "constant": true,
      "inputs": [],
      "name": "endTime",
      "outputs": [
        {
          "name": "",
          "type": "uint256"
        }
      ],
      "payable": false,
      "stateMutability": "view",
      "type": "function"
    },
    {
      "constant": true,
      "inputs": [],
      "name": "promissoryAddr",
      "outputs": [
        {
          "name": "",
          "type": "address"
        }
      ],
      "payable": false,
      "stateMutability": "view",
      "type": "function"
    },
    {
      "constant": true,
      "inputs": [],
      "name": "startBlock",
      "outputs": [
        {
          "name": "",
          "type": "uint256"
        }
      ],
      "payable": false,
      "stateMutability": "view",
      "type": "function"
    },
    {
      "constant": true,
      "inputs": [],
      "name": "crypto-blizToken",
      "outputs": [
        {
          "name": "",
          "type": "address"
        }
      ],
      "payable": false,
      "stateMutability": "view",
      "type": "function"
    },
    {
      "constant": true,
      "inputs": [
        {
          "name": "",
          "type": "address"
        }
      ],
      "name": "bids",
      "outputs": [
        {
          "name": "",
          "type": "uint256"
        }
      ],
      "payable": false,
      "stateMutability": "view",
      "type": "function"
    },
    {
      "constant": true,
      "inputs": [],
      "name": "WAITING_PERIOD",
      "outputs": [
        {
          "name": "",
          "type": "uint256"
        }
      ],
      "payable": false,
      "stateMutability": "view",
      "type": "function"
    },
    {
      "constant": true,
      "inputs": [],
      "name": "ceiling",
      "outputs": [
        {
          "name": "",
          "type": "uint256"
        }
      ],
      "payable": false,
      "stateMutability": "view",
      "type": "function"
    },
    {
      "constant": true,
      "inputs": [],
      "name": "owner",
      "outputs": [
        {
          "name": "",
          "type": "address"
        }
      ],
      "payable": false,
      "stateMutability": "view",
      "type": "function"
    },
    {
      "constant": true,
      "inputs": [],
      "name": "pWallet",
      "outputs": [
        {
          "name": "",
          "type": "address"
        }
      ],
      "payable": false,
      "stateMutability": "view",
      "type": "function"
    },
    {
      "constant": true,
      "inputs": [],
      "name": "totalReceived",
      "outputs": [
        {
          "name": "",
          "type": "uint256"
        }
      ],
      "payable": false,
      "stateMutability": "view",
      "type": "function"
    },
    {
      "constant": true,
      "inputs": [],
      "name": "finalPrice",
      "outputs": [
        {
          "name": "",
          "type": "uint256"
        }
      ],
      "payable": false,
      "stateMutability": "view",
      "type": "function"
    },
    {
      "constant": true,
      "inputs": [],
      "name": "stage",
      "outputs": [
        {
          "name": "",
          "type": "uint8"
        }
      ],
      "payable": false,
      "stateMutability": "view",
      "type": "function"
    },
    {
      "constant": true,
      "inputs": [],
      "name": "PromissoryTokenIns",
      "outputs": [
        {
          "name": "",
          "type": "address"
        }
      ],
      "payable": false,
      "stateMutability": "view",
      "type": "function"
    },
    {
      "constant": true,
      "inputs": [],
      "name": "priceFactor",
      "outputs": [
        {
          "name": "",
          "type": "uint256"
        }
      ],
      "payable": false,
      "stateMutability": "view",
      "type": "function"
    },
    {
      "inputs": [
        {
          "name": "_pWallet",
          "type": "address"
        },
        {
          "name": "_ceiling",
          "type": "uint256"
        },
        {
          "name": "_priceFactor",
          "type": "uint256"
        }
      ],
      "payable": false,
      "stateMutability": "nonpayable",
      "type": "constructor"
    },
    {
      "anonymous": false,
      "inputs": [
        {
          "indexed": true,
          "name": "sender",
          "type": "address"
        },
        {
          "indexed": false,
          "name": "amount",
          "type": "uint256"
        }
      ],
      "name": "BidSubmission",
      "type": "event"
    },
    {
      "anonymous": false,
      "inputs": [
        {
          "indexed": false,
          "name": "_data",
          "type": "bytes"
        },
        {
          "indexed": false,
          "name": "_lengt",
          "type": "uint256"
        }
      ],
      "name": "logPayload",
      "type": "event"
    },
    {
      "constant": false,
      "inputs": [
        {
          "name": "_kittieToken",
          "type": "address"
        }
      ],
      "name": "setup",
      "outputs": [],
      "payable": false,
      "stateMutability": "nonpayable",
      "type": "function"
    },
    {
      "constant": false,
      "inputs": [],
      "name": "startCRYPTO",
      "outputs": [],
      "payable": false,
      "stateMutability": "nonpayable",
      "type": "function"
    },
    {
      "constant": false,
      "inputs": [
        {
          "name": "_ceiling",
          "type": "uint256"
        },
        {
          "name": "_priceFactor",
          "type": "uint256"
        }
      ],
      "name": "changeSettings",
      "outputs": [],
      "payable": false,
      "stateMutability": "nonpayable",
      "type": "function"
    },
    {
      "constant": false,
      "inputs": [],
      "name": "calcCurrentTokenPrice",
      "outputs": [
        {
          "name": "",
          "type": "uint256"
        }
      ],
      "payable": false,
      "stateMutability": "nonpayable",
      "type": "function"
    },
    {
      "constant": false,
      "inputs": [],
      "name": "updateStage",
      "outputs": [
        {
          "name": "",
          "type": "uint8"
        }
      ],
      "payable": false,
      "stateMutability": "nonpayable",
      "type": "function"
    },
    {
      "constant": false,
      "inputs": [
        {
          "name": "receiver",
          "type": "address"
        }
      ],
      "name": "bid",
      "outputs": [
        {
          "name": "amount",
          "type": "uint256"
        }
      ],
      "payable": true,
      "stateMutability": "payable",
      "type": "function"
    },
    {
      "constant": false,
      "inputs": [
        {
          "name": "receiver",
          "type": "address"
        }
      ],
      "name": "claimTokens",
      "outputs": [],
      "payable": false,
      "stateMutability": "nonpayable",
      "type": "function"
    },
    {
      "constant": true,
      "inputs": [],
      "name": "calcStopPrice",
      "outputs": [
        {
          "name": "",
          "type": "uint256"
        }
      ],
      "payable": false,
      "stateMutability": "view",
      "type": "function"
    },
    {
      "constant": true,
      "inputs": [],
      "name": "calcTokenPrice",
      "outputs": [
        {
          "name": "",
          "type": "uint256"
        }
      ],
      "payable": false,
      "stateMutability": "view",
      "type": "function"
    }
  ],
  "bytecode": "0x608060405234801561001057600080fd5b50604051610d39380380610d398339818101604052606081101561003357600080fd5b50805160208201516040909201519091906001600160a01b0383161580610058575081155b80610061575080155b1561006b57600080fd5b600280546001600160a01b03199081163317909155600380548216730348b55abd6e1a99c6ebc972a6a4582ec0bceb5c179055600080546001600160a01b039590951694909116939093178355600491909155600555600b805460ff19169055610c5e9081906100db90396000f3fe60806040526004361061014b5760003560e01c80638da5cb5b116100b6578063c062f5781161006f578063c062f57814610386578063cf7606341461039b578063d9f8a4e2146103b0578063dd9dd688146103c5578063df8de3e7146103da578063dfb2866d1461040d5761014b565b80638da5cb5b146102d35780639866845d146102e85780639cf5453d146102fd578063a3c2c46214610323578063a6b513ee14610338578063c040e6b81461034d5761014b565b80635fcee458116101085780635fcee4581461021957806362ea82db1461022e57806366d38203146102615780636b64c769146102945780636f85c7e4146102a9578063753ed1bd146102be5761014b565b806317f5de95146101505780633197cbb61461017757806333a42d101461018c57806336d02c94146101bd57806339f64b52146101ef57806348cd4cb114610204575b600080fd5b34801561015c57600080fd5b50610165610422565b60408051918252519081900360200190f35b34801561018357600080fd5b50610165610431565b34801561019857600080fd5b506101a1610437565b604080516001600160a01b039092168252519081900360200190f35b3480156101c957600080fd5b506101ed600480360360408110156101e057600080fd5b508035906020013561044f565b005b3480156101fb57600080fd5b50610165610490565b34801561021057600080fd5b506101656104b9565b34801561022557600080fd5b506101a16104bf565b34801561023a57600080fd5b506101656004803603602081101561025157600080fd5b50356001600160a01b03166104ce565b34801561026d57600080fd5b506101ed6004803603602081101561028457600080fd5b50356001600160a01b03166104e0565b3480156102a057600080fd5b506101ed6105dd565b3480156102b557600080fd5b50610165610626565b3480156102ca57600080fd5b5061016561062d565b3480156102df57600080fd5b506101a1610633565b3480156102f457600080fd5b506101a1610642565b6101656004803603602081101561031357600080fd5b50356001600160a01b0316610651565b34801561032f57600080fd5b5061016561082f565b34801561034457600080fd5b50610165610835565b34801561035957600080fd5b5061036261083b565b6040518082600481111561037257fe5b60ff16815260200191505060405180910390f35b34801561039257600080fd5b50610362610844565b3480156103a757600080fd5b506101a16108c4565b3480156103bc57600080fd5b506101656108d3565b3480156103d157600080fd5b50610165610993565b3480156103e657600080fd5b506101ed600480360360208110156103fd57600080fd5b50356001600160a01b03166109b5565b34801561041957600080fd5b50610165610be8565b6a084595161401484a00000081565b60075481565b730348b55abd6e1a99c6ebc972a6a4582ec0bceb5c81565b6000546001600160a01b0316331461046657600080fd5b600180600b5460ff16600481111561047a57fe5b1461048457600080fd5b50600491909155600555565b60006006544303611d4c01600554670de0b6b3a764000002816104af57fe5b0460010190505b90565b60065481565b6001546001600160a01b031681565b600a6020526000908152604090205481565b6002546001600160a01b031633146104f757600080fd5b600080600b5460ff16600481111561050b57fe5b1461051557600080fd5b6001600160a01b03821661052857600080fd5b600180546001600160a01b0319166001600160a01b038481169190911791829055604080516370a0823160e01b815230600482015290516a084595161401484a00000093909216916370a0823191602480820192602092909190829003018186803b15801561059657600080fd5b505afa1580156105aa573d6000803e3d6000fd5b505050506040513d60208110156105c057600080fd5b5051146105cc57600080fd5b5050600b805460ff19166001179055565b6002546001600160a01b031633146105f457600080fd5b600180600b5460ff16600481111561060857fe5b1461061257600080fd5b50600b805460ff1916600217905543600655565b623b538081565b60045481565b6002546001600160a01b031681565b6000546001600160a01b031681565b60006002600b5460ff16600481111561066657fe5b1480156106815750610676610993565b61067e610490565b11155b1561068e5761068e610bee565b6003600b5460ff1660048111156106a157fe5b1480156106b45750623b53806007540142115b156106c757600b805460ff191660041790555b600280600b5460ff1660048111156106db57fe5b146106e557600080fd5b6001600160a01b0383166106f7573392505b3491506000600854610707610490565b670de0b6b3a76400006a084595161401484a0000000402039050600060085460045403905081811015610738578091505b8184111561077657819350846001600160a01b03166108fc8534039081150290604051600060405180830381858888f1935050505061077657600080fd5b8315806107a85750600080546040516001600160a01b039091169186156108fc02918791818181858888f19350505050155b156107b257600080fd5b6001600160a01b0385166000908152600a602052604090208054850190556008805485019055818414156107e8576107e8610bee565b6040805185815290516001600160a01b038716917f9c89e828e6cee6374b68147c9e753e41746aad98ba255a527a4fc0ac1868bff9919081900360200190a2505050919050565b60085481565b60095481565b600b5460ff1681565b60006002600b5460ff16600481111561085957fe5b1480156108745750610869610993565b610871610490565b11155b1561088157610881610bee565b6003600b5460ff16600481111561089457fe5b1480156108a75750623b53806007540142115b156108ba57600b805460ff191660041790555b50600b5460ff1690565b6003546001600160a01b031681565b60006002600b5460ff1660048111156108e857fe5b14801561090357506108f8610993565b610900610490565b11155b1561091057610910610bee565b6003600b5460ff16600481111561092357fe5b1480156109365750623b53806007540142115b1561094957600b805460ff191660041790555b6003600b5460ff16600481111561095c57fe5b148061097857506004600b5460ff16600481111561097657fe5b145b1561098657506009546104b6565b61098e610490565b905090565b60006a084595161401484a000000600854670de0b6b3a764000002816104af57fe5b6040805136602082018190528282529181018290527f1731fdc3bb916cb9784ad5d30a3a9c01b6f53ca830447dbfa839dfea7a699e8d9160009181908060608101858480828437600083820152604051601f909101601f1916909201829003965090945050505050a16004361480610a2d5750602436145b610a71576040805162461bcd60e51b815260206004820152601060248201526f139bc81d985b1a59081c185e5b1bd85960821b604482015290519081900360640190fd5b6002600b5460ff166004811115610a8457fe5b148015610a9f5750610a94610993565b610a9c610490565b11155b15610aac57610aac610bee565b6003600b5460ff166004811115610abf57fe5b148015610ad25750623b53806007540142115b15610ae557600b805460ff191660041790555b600480600b5460ff166004811115610af957fe5b14610b0357600080fd5b6001600160a01b038216610b15573391505b6009546001600160a01b0383166000908152600a6020526040812054909190670de0b6b3a76400000281610b4557fe5b6001600160a01b038086166000818152600a60209081526040808320839055600154815163a9059cbb60e01b8152600481019590955296909504602484018190529451949650949092169363a9059cbb9360448084019492939192918390030190829087803b158015610bb757600080fd5b505af1158015610bcb573d6000803e3d6000fd5b505050506040513d6020811015610be157600080fd5b5050505050565b60055481565b600b805460ff191660031790556004546008541415610c1757610c0f610490565b600955610c23565b610c1f610993565b6009555b4260075556fea265627a7a72305820a7228339b2e7edd10a6ef3b250f18730430cd8fa768c664836ce994300668ac464736f6c634300050a0032",
  "source": "pragma solidity ^0.5.10;\n\nimport \"./Interfaces/InterfaceToken.sol\";\nimport \"./Interfaces/PromissoryContract.sol\";\n\n//\n/// @title Crypto CRYPTO contract - from gnosis, see source : https://github.com/maurelian/Crypto-CRYPTO\n/// improved with latest solidity syntax\ncontract crypto-bliz {\n\n    /*\n     *  Events\n     */\n    event BidSubmission(address indexed sender, uint256 amount);\n    event logPayload(bytes _data, uint _lengt);\n\n    /*\n     *  Constants\n     */\n    uint constant public MAX_TOKENS_SOLD = 10000000 * 10**18; // 10M\n    uint constant public WAITING_PERIOD = 45 days;\n\n    /*\n     *  Storage\n     */\n\n\n    address payable public pWallet;\n    Token public crypto-blizToken;\n    address public owner;\n    PromissoryToken public PromissoryTokenIns; \n    address constant public promissoryAddr = 0x0348B55AbD6E1A99C6EBC972A6A4582Ec0bcEb5c;\n    uint public ceiling;\n    uint public priceFactor;\n    uint public startBlock;\n    uint public endTime;\n    uint public totalReceived;\n    uint public finalPrice;\n    mapping (address => uint) public bids;\n    Stages public stage;\n\n    /*\n     *  Enums\n     */\n    enum Stages {\n        CRYPTODeployed,\n        CRYPTOSetUp,\n        CRYPTOStarted,\n        CRYPTOEnded,\n        TradingStarted\n    }\n\n    /*\n     *  Modifiers\n     */\n    modifier atStage(Stages _stage) {\n        require(stage == _stage);\n            // Contract not in expected state\n        _;\n    }\n\n    modifier isOwner() {\n        require(msg.sender == owner);\n            // Only owner is allowed to proceed\n        _;\n    }\n\n    modifier isWallet() {\n         require(msg.sender == address(pWallet));\n            // Only wallet is allowed to proceed\n        _;\n    }\n\n    modifier isValidPayload() {\n        emit logPayload(msg.data, msg.data.length);\n        require(msg.data.length == 4 || msg.data.length == 36, \"No valid payload\");\n        _;\n    }\n\n    modifier timedTransitions() {\n        if (stage == Stages.CRYPTOStarted && calcTokenPrice() <= calcStopPrice())\n            finalizeCRYPTO();\n        if (stage == Stages.CRYPTOEnded && now > endTime + WAITING_PERIOD)\n            stage = Stages.TradingStarted;\n        _;\n    }\n\n    /*\n     *  Public functions\n     */\n    /// @dev Contract constructor function sets owner.\n    /// @param _pWallet crypto-bliz promissory wallet.\n    /// @param _ceiling CRYPTO ceiling.\n    /// @param _priceFactor CRYPTO price factor.\n    constructor(address payable _pWallet, uint _ceiling, uint _priceFactor)\n        public\n    {\n        if (_pWallet == address(0) || _ceiling == 0 || _priceFactor == 0)\n            // Arguments are null.\n            revert();\n        owner = msg.sender;\n        PromissoryTokenIns = PromissoryToken(promissoryAddr);\n        pWallet = _pWallet;\n        ceiling = _ceiling;\n        priceFactor = _priceFactor;\n        stage = Stages.CRYPTODeployed;\n    }\n\n    /// @dev Setup function sets external contracts' addresses.\n    /// @param _kittieToken  token address.\n    function setup(address _kittieToken)\n        public\n        isOwner\n        atStage(Stages.CRYPTODeployed)\n    {\n        if (_kittieToken == address(0))\n            // Argument is null.\n            revert();\n        crypto-blizToken = Token(_kittieToken);\n        // Validate token balance\n        if (crypto-blizToken.balanceOf(address(this)) != MAX_TOKENS_SOLD)\n            revert();\n        stage = Stages.CRYPTOSetUp;\n    }\n\n    /// @dev Starts CRYPTO and sets startBlock.\n    function startCRYPTO()\n        public\n        isOwner\n        atStage(Stages.CRYPTOSetUp)\n    {\n        stage = Stages.CRYPTOStarted;\n        startBlock = block.number;\n    }\n\n    /// @dev Changes CRYPTO ceiling and start price factor before CRYPTO is started.\n    /// @param _ceiling Updated CRYPTO ceiling.\n    /// @param _priceFactor Updated start price factor.\n    function changeSettings(uint _ceiling, uint _priceFactor)\n        public\n        isWallet\n        atStage(Stages.CRYPTOSetUp)\n    {\n        ceiling = _ceiling;\n        priceFactor = _priceFactor;\n    }\n\n    /// @dev Calculates current token price.\n    /// @return Returns token price.\n    function calcCurrentTokenPrice()\n        public\n        timedTransitions\n        returns (uint)\n    {\n        if (stage == Stages.CRYPTOEnded || stage == Stages.TradingStarted)\n            return finalPrice;\n        return calcTokenPrice();\n    }\n\n    /// @dev Returns correct stage, even if a function with timedTransitions modifier has not yet been called yet.\n    /// @return Returns current CRYPTO stage.\n    function updateStage()\n        public\n        timedTransitions\n        returns (Stages)\n    {\n        return stage;\n    }\n\n    /// @dev Allows to send a bid to the CRYPTO.\n    /// @param receiver Bid will be assigned to this address if set.\n    function bid(address payable receiver)\n        public\n        payable\n        //isValidPayload\n        timedTransitions\n        atStage(Stages.CRYPTOStarted)\n        returns (uint amount)\n    {\n        // If a bid is done on behalf of a user via ShapeShift, the receiver address is set.\n        if (receiver == address(0))\n            receiver = msg.sender;\n        amount = msg.value;\n        // Prevent that more than 90% of tokens are sold. Only relevant if cap not reached.\n        uint maxWei = (MAX_TOKENS_SOLD / 10**18) * calcTokenPrice() - totalReceived;\n        uint maxWeiBasedOnTotalReceived = ceiling - totalReceived;\n        if (maxWeiBasedOnTotalReceived < maxWei)\n            maxWei = maxWeiBasedOnTotalReceived;\n        // Only invest maximum possible amount.\n        if (amount > maxWei) {\n            amount = maxWei;\n            // Send change back to receiver address. In case of a ShapeShift bid the user receives the change back directly.\n            if (!receiver.send(msg.value - amount))\n                // Sending failed\n                revert();\n        }\n        // Forward funding to ether pWallet\n        if (amount == 0 || !address(pWallet).send(amount))\n            // No amount sent or sending failed\n            revert();\n        bids[receiver] += amount;\n        totalReceived += amount;\n        if (maxWei == amount)\n            // When maxWei is equal to the big amount the CRYPTO is ended and finalizeCRYPTO is triggered.\n            finalizeCRYPTO();\n        emit BidSubmission(receiver, amount);\n    }\n\n    /// @dev Claims tokens for bidder after CRYPTO.\n    /// @param receiver Tokens will be assigned to this address if set.\n    function claimTokens(address receiver)\n        public\n        isValidPayload\n        timedTransitions\n        atStage(Stages.TradingStarted)\n    {\n        if (receiver == address(0))\n            receiver = msg.sender;\n        uint tokenCount = bids[receiver] * 10**18 / finalPrice;\n        bids[receiver] = 0;\n        crypto-blizToken.transfer(receiver, tokenCount);\n    }\n\n    /// @dev Calculates stop price.\n    /// @return Returns stop price.\n    function calcStopPrice()\n        view\n        public\n        returns (uint)\n    {\n        return totalReceived * 10**18 / MAX_TOKENS_SOLD + 1;\n    }\n\n    /// @dev Calculates token price.\n    /// @return Returns token price.\n    function calcTokenPrice()\n        view\n        public\n        returns (uint)\n    {\n        return priceFactor * 10**18 / (block.number - startBlock + 7500) + 1;\n    }\n\n    /*\n     *  Private functions\n     */\n    function finalizeCRYPTO()\n        private\n    {\n        stage = Stages.CRYPTOEnded;\n\n        if (totalReceived == ceiling)\n            finalPrice = calcTokenPrice();\n        else\n            finalPrice = calcStopPrice();\n\n        endTime = now;\n    }\n\n\n}\n",
  "sourcePath": "D:\\projects\\ethereum\\crypto-bliz\\token\\crypto-bliz\\contracts\\crypto-bliz.sol",
  "compiler": {
    "name": "solc",
    "version": "0.5.10+commit.5a6ea5b1.Emscripten.clang"
  },
  "schemaVersion": "3.0.11",
  "updatedAt": "2019-07-27T02:38:41.033Z",
  "devdoc": {
    "methods": {
      "bid(address)": {
        "details": "Allows to send a bid to the CRYPTO.",
        "params": {
          "receiver": "Bid will be assigned to this address if set."
        }
      },
      "calcCurrentTokenPrice()": {
        "details": "Calculates current token price.",
        "return": "Returns token price."
      },
      "calcStopPrice()": {
        "details": "Calculates stop price.",
        "return": "Returns stop price."
      },
      "calcTokenPrice()": {
        "details": "Calculates token price.",
        "return": "Returns token price."
      },
      "changeSettings(uint256,uint256)": {
        "details": "Changes CRYPTO ceiling and start price factor before CRYPTO is started.",
        "params": {
          "_ceiling": "Updated CRYPTO ceiling.",
          "_priceFactor": "Updated start price factor."
        }
      },
      "claimTokens(address)": {
        "details": "Claims tokens for bidder after CRYPTO.",
        "params": {
          "receiver": "Tokens will be assigned to this address if set."
        }
      },
      "constructor": {
        "details": "Contract constructor function sets owner.",
        "params": {
          "_ceiling": "CRYPTO ceiling.",
          "_pWallet": "crypto-bliz promissory wallet.",
          "_priceFactor": "CRYPTO price factor."
        }
      },
      "setup(address)": {
        "details": "Setup function sets external contracts' addresses.",
        "params": {
          "_kittieToken": "token address."
        }
      },
      "startCRYPTO()": {
        "details": "Starts CRYPTO and sets startBlock."
      },
      "updateStage()": {
        "details": "Returns correct stage, even if a function with timedTransitions modifier has not yet been called yet.",
        "return": "Returns current CRYPTO stage."
      }
    },
    "title": "Crypto CRYPTO contract - from gnosis, see source : https://github.com/maurelian/Crypto-CRYPTO improved with latest solidity syntax"
  },
  "userdoc": {
    "methods": {}
  }
}