{
  "contractName": "DelayedClaimable",
  "abi": [
    {
      "constant": true,
      "inputs": [],
      "name": "owner",
      "outputs": [
        {
          "name": "",
          "type": "address"
        }
      ],
      "payable": false,
      "stateMutability": "view",
      "type": "function"
    },
    {
      "constant": true,
      "inputs": [],
      "name": "start",
      "outputs": [
        {
          "name": "",
          "type": "uint256"
        }
      ],
      "payable": false,
      "stateMutability": "view",
      "type": "function"
    },
    {
      "constant": true,
      "inputs": [],
      "name": "pendingOwner",
      "outputs": [
        {
          "name": "",
          "type": "address"
        }
      ],
      "payable": false,
      "stateMutability": "view",
      "type": "function"
    },
    {
      "constant": true,
      "inputs": [],
      "name": "end",
      "outputs": [
        {
          "name": "",
          "type": "uint256"
        }
      ],
      "payable": false,
      "stateMutability": "view",
      "type": "function"
    },
    {
      "constant": false,
      "inputs": [
        {
          "name": "newOwner",
          "type": "address"
        }
      ],
      "name": "transferOwnership",
      "outputs": [],
      "payable": false,
      "stateMutability": "nonpayable",
      "type": "function"
    },
    {
      "anonymous": false,
      "inputs": [
        {
          "indexed": true,
          "name": "previousOwner",
          "type": "address"
        },
        {
          "indexed": true,
          "name": "newOwner",
          "type": "address"
        }
      ],
      "name": "OwnershipTransferred",
      "type": "event"
    },
    {
      "constant": false,
      "inputs": [
        {
          "name": "_start",
          "type": "uint256"
        },
        {
          "name": "_end",
          "type": "uint256"
        }
      ],
      "name": "setLimits",
      "outputs": [],
      "payable": false,
      "stateMutability": "nonpayable",
      "type": "function"
    },
    {
      "constant": false,
      "inputs": [],
      "name": "claimOwnership",
      "outputs": [],
      "payable": false,
      "stateMutability": "nonpayable",
      "type": "function"
    }
  ],
  "bytecode": "0x6080604052600080546001600160a01b03191633179055610284806100256000396000f3fe608060405234801561001057600080fd5b506004361061007d5760003560e01c8063c4590d3f1161005b578063c4590d3f146100ca578063e30c3978146100ed578063efbe1c1c146100f5578063f2fde38b146100fd5761007d565b80634e71e0c8146100825780638da5cb5b1461008c578063be9a6555146100b0575b600080fd5b61008a610123565b005b6100946101c0565b604080516001600160a01b039092168252519081900360200190f35b6100b86101cf565b60408051918252519081900360200190f35b61008a600480360360408110156100e057600080fd5b50803590602001356101d5565b610094610201565b6100b8610210565b61008a6004803603602081101561011357600080fd5b50356001600160a01b0316610216565b6001546001600160a01b0316331461013a57600080fd5b600254431115801561014e57506003544310155b61015757600080fd5b600154600080546040516001600160a01b0393841693909116917f8be0079c531659141344cd1fd0a4f28419497f9722a3daafe3b4186f6b6457e091a360018054600080546001600160a01b03199081166001600160a01b038416178255909116909155600255565b6000546001600160a01b031681565b60035481565b6000546001600160a01b031633146101ec57600080fd5b808211156101f957600080fd5b600255600355565b6001546001600160a01b031681565b60025481565b6000546001600160a01b0316331461022d57600080fd5b600180546001600160a01b0319166001600160a01b039290921691909117905556fea265627a7a723058201b2365ecea10c9e87a2fbf0b2756dadaaf8cdf3b1a40103b5fcdbf7048e4e0b864736f6c634300050a0032",
  "source": "pragma solidity ^0.5.10;\n\nimport \"./Claimable.sol\";\n\n\n/**\n * @title DelayedClaimable\n * @dev Extension for the Claimable contract, where the ownership needs to be claimed before/after\n * a certain block number.\n */\ncontract DelayedClaimable is Claimable {\n\n  uint256 public end;\n  uint256 public start;\n\n  /**\n   * @dev Used to specify the time period during which a pending\n   * owner can claim ownership.\n   * @param _start The earliest time ownership can be claimed.\n   * @param _end The latest time ownership can be claimed.\n   */\n  function setLimits(uint256 _start, uint256 _end) onlyOwner public {\n    require(_start <= _end);\n    end = _end;\n    start = _start;\n  }\n\n  /**\n   * @dev Allows the pendingOwner address to finalize the transfer, as long as it is called within\n   * the specified start and end time.\n   */\n  function claimOwnership() onlyPendingOwner public {\n    require((block.number <= end) && (block.number >= start));\n    emit OwnershipTransferred(owner, pendingOwner);\n    owner = pendingOwner;\n    pendingOwner = address(0);\n    end = 0;\n  }\n\n}\n",
  "sourcePath": "D:/projects/ethereum/crypto-bliz/token/crypto-bliz/contracts/openzeppelin-solidity/ownership/DelayedClaimable.sol",
  "compiler": {
    "name": "solc",
    "version": "0.5.10+commit.5a6ea5b1.Emscripten.clang"
  },
  "schemaVersion": "3.0.11",
  "updatedAt": "2019-07-10T17:06:18.587Z",
  "devdoc": {
    "details": "Extension for the Claimable contract, where the ownership needs to be claimed before/after a certain block number.",
    "methods": {
      "claimOwnership()": {
        "details": "Allows the pendingOwner address to finalize the transfer, as long as it is called within the specified start and end time."
      },
      "setLimits(uint256,uint256)": {
        "details": "Used to specify the time period during which a pending owner can claim ownership.",
        "params": {
          "_end": "The latest time ownership can be claimed.",
          "_start": "The earliest time ownership can be claimed."
        }
      },
      "transferOwnership(address)": {
        "details": "Allows the current owner to set the pendingOwner address.",
        "params": {
          "newOwner": "The address to transfer ownership to."
        }
      }
    },
    "title": "DelayedClaimable"
  },
  "userdoc": {
    "methods": {}
  }
}