{
  "contractName": "PromissoryToken",
  "abi": [
    {
      "constant": true,
      "inputs": [],
      "name": "lastPrice",
      "outputs": [
        {
          "name": "",
          "type": "uint256"
        }
      ],
      "payable": false,
      "stateMutability": "view",
      "type": "function"
    },
    {
      "inputs": [],
      "payable": false,
      "stateMutability": "nonpayable",
      "type": "constructor"
    }
  ],
  "bytecode": "0x6080604052348015600f57600080fd5b5060858061001e6000396000f3fe6080604052348015600f57600080fd5b506004361060285760003560e01c8063053f14da14602d575b600080fd5b60336045565b60408051918252519081900360200190f35b66a56bac75133c008156fea265627a7a72305820d8587b87e9edf488302f257403118c83f12e189342b73d75e0d023e94290670f64736f6c634300050a0032",
  "source": "pragma solidity ^0.5.10;\n\ncontract PromissoryToken  {\n\n\tuint constant public lastPrice = 46561759600000000;\n\t\n\tconstructor() public {\n\n\t}\n}\n",
  "sourcePath": "D:/projects/ethereum/crypto-bliz/token/crypto-bliz/contracts/PromissoryToken.sol",
  "compiler": {
    "name": "solc",
    "version": "0.5.10+commit.5a6ea5b1.Emscripten.clang"
  },
  "schemaVersion": "3.0.11",
  "updatedAt": "2019-07-27T02:38:41.206Z",
  "devdoc": {
    "methods": {}
  },
  "userdoc": {
    "methods": {}
  }
}