{
  "contractName": "RBAC",
  "abi": [
    {
      "constant": true,
      "inputs": [],
      "name": "ROLE_ADMIN",
      "outputs": [
        {
          "name": "",
          "type": "string"
        }
      ],
      "payable": false,
      "stateMutability": "view",
      "type": "function"
    },
    {
      "inputs": [],
      "payable": false,
      "stateMutability": "nonpayable",
      "type": "constructor"
    },
    {
      "anonymous": false,
      "inputs": [
        {
          "indexed": false,
          "name": "addr",
          "type": "address"
        },
        {
          "indexed": false,
          "name": "roleName",
          "type": "string"
        }
      ],
      "name": "RoleAdded",
      "type": "event"
    },
    {
      "anonymous": false,
      "inputs": [
        {
          "indexed": false,
          "name": "addr",
          "type": "address"
        },
        {
          "indexed": false,
          "name": "roleName",
          "type": "string"
        }
      ],
      "name": "RoleRemoved",
      "type": "event"
    },
    {
      "constant": true,
      "inputs": [
        {
          "name": "addr",
          "type": "address"
        },
        {
          "name": "roleName",
          "type": "string"
        }
      ],
      "name": "checkRole",
      "outputs": [],
      "payable": false,
      "stateMutability": "view",
      "type": "function"
    },
    {
      "constant": true,
      "inputs": [
        {
          "name": "addr",
          "type": "address"
        },
        {
          "name": "roleName",
          "type": "string"
        }
      ],
      "name": "hasRole",
      "outputs": [
        {
          "name": "",
          "type": "bool"
        }
      ],
      "payable": false,
      "stateMutability": "view",
      "type": "function"
    },
    {
      "constant": false,
      "inputs": [
        {
          "name": "addr",
          "type": "address"
        },
        {
          "name": "roleName",
          "type": "string"
        }
      ],
      "name": "adminAddRole",
      "outputs": [],
      "payable": false,
      "stateMutability": "nonpayable",
      "type": "function"
    },
    {
      "constant": false,
      "inputs": [
        {
          "name": "addr",
          "type": "address"
        },
        {
          "name": "roleName",
          "type": "string"
        }
      ],
      "name": "adminRemoveRole",
      "outputs": [],
      "payable": false,
      "stateMutability": "nonpayable",
      "type": "function"
    }
  ],
  "bytecode": "0x608060405234801561001057600080fd5b50610056336040518060400160405280600581526020017f61646d696e00000000000000000000000000000000000000000000000000000081525061005b60201b60201c565b6101ab565b6100cf826000836040518082805190602001908083835b602083106100915780518252601f199092019160209182019101610072565b51815160209384036101000a60001901801990921691161790529201948552506040519384900381019093209392610186811b61077917901c915050565b7fbfec83d64eaa953f2708271a023ab9ee82057f8f3578d548c1a4ba0b5b700489828260405180836001600160a01b03166001600160a01b0316815260200180602001828103825283818151815260200191508051906020019080838360005b8381101561014757818101518382015260200161012f565b50505050905090810190601f1680156101745780820380516001836020036101000a031916815260200191505b50935050505060405180910390a15050565b6001600160a01b0316600090815260209190915260409020805460ff19166001179055565b6107d3806101ba6000396000f3fe608060405234801561001057600080fd5b50600436106100575760003560e01c80630988ca8c1461005c578063217fe6c61461011257806388cee87e146101da578063b25fa92c1461028e578063d391014b14610342575b600080fd5b6101106004803603604081101561007257600080fd5b6001600160a01b038235169190810190604081016020820135600160201b81111561009c57600080fd5b8201836020820111156100ae57600080fd5b803590602001918460018302840111600160201b831117156100cf57600080fd5b91908080601f0160208091040260200160405190810160405280939291908181526020018383808284376000920191909152509295506103bf945050505050565b005b6101c66004803603604081101561012857600080fd5b6001600160a01b038235169190810190604081016020820135600160201b81111561015257600080fd5b82018360208201111561016457600080fd5b803590602001918460018302840111600160201b8311171561018557600080fd5b91908080601f01602080910402602001604051908101604052809392919081815260200183838082843760009201919091525092955061042d945050505050565b604080519115158252519081900360200190f35b610110600480360360408110156101f057600080fd5b6001600160a01b038235169190810190604081016020820135600160201b81111561021a57600080fd5b82018360208201111561022c57600080fd5b803590602001918460018302840111600160201b8311171561024d57600080fd5b91908080601f0160208091040260200160405190810160405280939291908181526020018383808284376000920191909152509295506104a0945050505050565b610110600480360360408110156102a457600080fd5b6001600160a01b038235169190810190604081016020820135600160201b8111156102ce57600080fd5b8201836020820111156102e057600080fd5b803590602001918460018302840111600160201b8311171561030157600080fd5b91908080601f0160208091040260200160405190810160405280939291908181526020018383808284376000920191909152509295506104d1945050505050565b61034a610502565b6040805160208082528351818301528351919283929083019185019080838360005b8381101561038457818101518382015260200161036c565b50505050905090810190601f1680156103b15780820380516001836020036101000a031916815260200191505b509250505060405180910390f35b610429826000836040518082805190602001908083835b602083106103f55780518252601f1990920191602091820191016103d6565b51815160209384036101000a6000190180199092169116179052920194855250604051938490030190922092915050610523565b5050565b6000610499836000846040518082805190602001908083835b602083106104655780518252601f199092019160209182019101610446565b51815160209384036101000a6000190180199092169116179052920194855250604051938490030190922092915050610536565b9392505050565b6104c7336040518060400160405280600581526020016430b236b4b760d91b8152506103bf565b6104298282610555565b6104f8336040518060400160405280600581526020016430b236b4b760d91b8152506103bf565b6104298282610676565b6040518060400160405280600581526020016430b236b4b760d91b81525081565b61052d8282610536565b61042957600080fd5b6001600160a01b03166000908152602091909152604090205460ff1690565b6105bf826000836040518082805190602001908083835b6020831061058b5780518252601f19909201916020918201910161056c565b51815160209384036101000a6000190180199092169116179052920194855250604051938490030190922092915050610757565b7fd211483f91fc6eff862467f8de606587a30c8fc9981056f051b897a418df803a828260405180836001600160a01b03166001600160a01b0316815260200180602001828103825283818151815260200191508051906020019080838360005b8381101561063757818101518382015260200161061f565b50505050905090810190601f1680156106645780820380516001836020036101000a031916815260200191505b50935050505060405180910390a15050565b6106e0826000836040518082805190602001908083835b602083106106ac5780518252601f19909201916020918201910161068d565b51815160209384036101000a6000190180199092169116179052920194855250604051938490030190922092915050610779565b7fbfec83d64eaa953f2708271a023ab9ee82057f8f3578d548c1a4ba0b5b700489828260405180836001600160a01b03166001600160a01b0316815260200180602001828103825283818151815260200191508051906020019080838360008381101561063757818101518382015260200161061f565b6001600160a01b0316600090815260209190915260409020805460ff19169055565b6001600160a01b0316600090815260209190915260409020805460ff1916600117905556fea265627a7a723058202a5f8fcf7ccf612b32ab0fb82c806a19641f611788ab77c36f0f6490f4886e2764736f6c634300050a0032",
  "source": "pragma solidity ^0.5.10;\n\nimport \"./Roles.sol\";\n\n\n/**\n * @title RBAC (Role-Based Access Control)\n * @author Matt Condon (@Shrugs)\n * @dev Stores and provides setters and getters for roles and addresses.\n *      Supports unlimited numbers of roles and addresses.\n *      See //contracts/mocks/RBACMock.sol for an example of usage.\n * This RBAC method uses strings to key roles. It may be beneficial\n *  for you to write your own implementation of this interface using Enums or similar.\n * It's also recommended that you define constants in the contract, like ROLE_ADMIN below,\n *  to avoid typos.\n */\ncontract RBAC {\n  using Roles for Roles.Role;\n\n  mapping (string => Roles.Role) private roles;\n\n  event RoleAdded(address addr, string roleName);\n  event RoleRemoved(address addr, string roleName);\n\n  /**\n   * A constant role name for indicating admins.\n   */\n  string public constant ROLE_ADMIN = \"admin\";\n\n  /**\n   * @dev constructor. Sets msg.sender as admin by default\n   */\n  constructor()\n    public\n  {\n    addRole(msg.sender, ROLE_ADMIN);\n  }\n\n  /**\n   * @dev reverts if addr does not have role\n   * @param addr address\n   * @param roleName the name of the role\n   * // reverts\n   */\n  function checkRole(address addr, string memory roleName)\n    view\n    public\n  {\n    roles[roleName].check(addr);\n  }\n\n  /**\n   * @dev determine if addr has role\n   * @param addr address\n   * @param roleName the name of the role\n   * @return bool\n   */\n  function hasRole(address addr, string memory roleName)\n    view\n    public\n    returns (bool)\n  {\n    return roles[roleName].has(addr);\n  }\n\n  /**\n   * @dev add a role to an address\n   * @param addr address\n   * @param roleName the name of the role\n   */\n  function adminAddRole(address addr, string memory roleName)\n    onlyAdmin\n    public\n  {\n    addRole(addr, roleName);\n  }\n\n  /**\n   * @dev remove a role from an address\n   * @param addr address\n   * @param roleName the name of the role\n   */\n  function adminRemoveRole(address addr, string memory roleName)\n    onlyAdmin\n    public\n  {\n    removeRole(addr, roleName);\n  }\n\n  /**\n   * @dev add a role to an address\n   * @param addr address\n   * @param roleName the name of the role\n   */\n  function addRole(address addr, string memory roleName)\n    internal\n  {\n    roles[roleName].add(addr);\n    emit RoleAdded(addr, roleName);\n  }\n\n  /**\n   * @dev remove a role from an address\n   * @param addr address\n   * @param roleName the name of the role\n   */\n  function removeRole(address addr, string memory roleName)\n    internal\n  {\n    roles[roleName].remove(addr);\n    emit RoleRemoved(addr, roleName);\n  }\n\n  /**\n   * @dev modifier to scope access to a single role (uses msg.sender as addr)\n   * @param roleName the name of the role\n   * // reverts\n   */\n  modifier onlyRole(string memory roleName)\n  {\n    checkRole(msg.sender, roleName);\n    _;\n  }\n\n  /**\n   * @dev modifier to scope access to admins\n   * // reverts\n   */\n  modifier onlyAdmin()\n  {\n    checkRole(msg.sender, ROLE_ADMIN);\n    _;\n  }\n\n  /**\n   * @dev modifier to scope access to a set of roles (uses msg.sender as addr)\n   * @param roleNames the names of the roles to scope access to\n   * // reverts\n   *\n   * @TODO - when solidity supports dynamic arrays as arguments to modifiers, provide this\n   *  see: https://github.com/ethereum/solidity/issues/2467\n   */\n  // modifier onlyRoles(string[] memory roleNames) {\n  //     bool hasAnyRole = false;\n  //     for (uint8 i = 0; i < roleNames.length; i++) {\n  //         if (hasRole(msg.sender, roleNames[i])) {\n  //             hasAnyRole = true;\n  //             break;\n  //         }\n  //     }\n\n  //     require(hasAnyRole);\n\n  //     _;\n  // }\n}\n",
  "sourcePath": "D:/projects/ethereum/crypto-bliz/token/crypto-bliz/contracts/openzeppelin-solidity/ownership/rbac/RBAC.sol",
  "compiler": {
    "name": "solc",
    "version": "0.5.10+commit.5a6ea5b1.Emscripten.clang"
  },
  "schemaVersion": "3.0.11",
  "updatedAt": "2019-07-10T17:06:18.599Z",
  "devdoc": {
    "author": "Matt Condon (@Shrugs)",
    "details": "Stores and provides setters and getters for roles and addresses.     Supports unlimited numbers of roles and addresses.     See //contracts/mocks/RBACMock.sol for an example of usage. This RBAC method uses strings to key roles. It may be beneficial for you to write your own implementation of this interface using Enums or similar. It's also recommended that you define constants in the contract, like ROLE_ADMIN below, to avoid typos.",
    "methods": {
      "adminAddRole(address,string)": {
        "details": "add a role to an address",
        "params": {
          "addr": "address",
          "roleName": "the name of the role"
        }
      },
      "adminRemoveRole(address,string)": {
        "details": "remove a role from an address",
        "params": {
          "addr": "address",
          "roleName": "the name of the role"
        }
      },
      "checkRole(address,string)": {
        "details": "reverts if addr does not have role",
        "params": {
          "addr": "address",
          "roleName": "the name of the role // reverts"
        }
      },
      "constructor": {
        "details": "constructor. Sets msg.sender as admin by default"
      },
      "hasRole(address,string)": {
        "details": "determine if addr has role",
        "params": {
          "addr": "address",
          "roleName": "the name of the role"
        },
        "return": "bool"
      }
    },
    "title": "RBAC (Role-Based Access Control)"
  },
  "userdoc": {
    "methods": {}
  }
}