{
  "contractName": "TokenDestructible",
  "abi": [
    {
      "constant": true,
      "inputs": [],
      "name": "owner",
      "outputs": [
        {
          "name": "",
          "type": "address"
        }
      ],
      "payable": false,
      "stateMutability": "view",
      "type": "function"
    },
    {
      "constant": false,
      "inputs": [
        {
          "name": "newOwner",
          "type": "address"
        }
      ],
      "name": "transferOwnership",
      "outputs": [],
      "payable": false,
      "stateMutability": "nonpayable",
      "type": "function"
    },
    {
      "inputs": [],
      "payable": true,
      "stateMutability": "payable",
      "type": "constructor"
    },
    {
      "anonymous": false,
      "inputs": [
        {
          "indexed": true,
          "name": "previousOwner",
          "type": "address"
        },
        {
          "indexed": true,
          "name": "newOwner",
          "type": "address"
        }
      ],
      "name": "OwnershipTransferred",
      "type": "event"
    },
    {
      "constant": false,
      "inputs": [
        {
          "name": "tokens",
          "type": "address[]"
        }
      ],
      "name": "destroy",
      "outputs": [],
      "payable": false,
      "stateMutability": "nonpayable",
      "type": "function"
    }
  ],
  "bytecode": "0x6080604052600080546001600160a01b03191633179055610361806100256000396000f3fe608060405234801561001057600080fd5b50600436106100415760003560e01c80638da5cb5b14610046578063c6786e5a1461006a578063f2fde38b1461010f575b600080fd5b61004e610135565b604080516001600160a01b039092168252519081900360200190f35b61010d6004803603602081101561008057600080fd5b81019060208101813564010000000081111561009b57600080fd5b8201836020820111156100ad57600080fd5b803590602001918460208302840111640100000000831117156100cf57600080fd5b919080806020026020016040519081016040528093929190818152602001838360200280828437600092019190915250929550610144945050505050565b005b61010d6004803603602081101561012557600080fd5b50356001600160a01b03166102a7565b6000546001600160a01b031681565b6000546001600160a01b0316331461015b57600080fd5b60005b815181101561029857600082828151811061017557fe5b602002602001015190506000816001600160a01b03166370a08231306040518263ffffffff1660e01b815260040180826001600160a01b03166001600160a01b0316815260200191505060206040518083038186803b1580156101d757600080fd5b505afa1580156101eb573d6000803e3d6000fd5b505050506040513d602081101561020157600080fd5b5051600080546040805163a9059cbb60e01b81526001600160a01b0392831660048201526024810185905290519394509085169263a9059cbb92604480840193602093929083900390910190829087803b15801561025e57600080fd5b505af1158015610272573d6000803e3d6000fd5b505050506040513d602081101561028857600080fd5b50506001909201915061015e9050565b506000546001600160a01b0316ff5b6000546001600160a01b031633146102be57600080fd5b6001600160a01b0381166102d157600080fd5b600080546040516001600160a01b03808516939216917f8be0079c531659141344cd1fd0a4f28419497f9722a3daafe3b4186f6b6457e091a3600080546001600160a01b0319166001600160a01b039290921691909117905556fea265627a7a723058206225935c801ca8f03891abfa8edf9433ed1b8209a6f0de86c5bfa245f735789164736f6c634300050a0032",
  "source": "pragma solidity ^0.5.10;\n\nimport \"../ownership/Ownable.sol\";\nimport \"../token/ERC20/ERC20Basic.sol\";\n\n\n/**\n * @title TokenDestructible:\n * @author Remco Bloemen <remco@2π.com>\n * @dev Base contract that can be destroyed by owner. All funds in contract including\n * listed tokens will be sent to the owner.\n */\ncontract TokenDestructible is Ownable {\n\n  constructor() public payable { }\n\n  /**\n   * @notice Terminate contract and refund to owner\n   * @param tokens List of addresses of ERC20 or ERC20Basic token contracts to\n   refund.\n   * @notice The called token contracts could try to re-enter this contract. Only\n   supply token contracts you trust.\n   */\n  function destroy(address[] memory tokens) onlyOwner public {\n\n    // Transfer tokens to owner\n    for (uint256 i = 0; i < tokens.length; i++) {\n      ERC20Basic token = ERC20Basic(tokens[i]);\n      uint256 balance = token.balanceOf(address(this));\n      token.transfer(address(owner), balance);\n    }\n\n    // Transfer Eth to owner and terminate contract\n    selfdestruct(address(uint160(owner)));\n  }\n}\n",
  "sourcePath": "D:/projects/ethereum/crypto-bliz/token/crypto-bliz/contracts/openzeppelin-solidity/lifecycle/TokenDestructible.sol",
  "compiler": {
    "name": "solc",
    "version": "0.5.10+commit.5a6ea5b1.Emscripten.clang"
  },
  "schemaVersion": "3.0.11",
  "updatedAt": "2019-07-10T17:06:18.580Z",
  "devdoc": {
    "author": "Remco Bloemen <remco@2π.com>",
    "details": "Base contract that can be destroyed by owner. All funds in contract including listed tokens will be sent to the owner.",
    "methods": {
      "destroy(address[])": {
        "params": {
          "tokens": "List of addresses of ERC20 or ERC20Basic token contracts to refund."
        }
      },
      "transferOwnership(address)": {
        "details": "Allows the current owner to transfer control of the contract to a newOwner.",
        "params": {
          "newOwner": "The address to transfer ownership to."
        }
      }
    },
    "title": "TokenDestructible:"
  },
  "userdoc": {
    "methods": {
      "destroy(address[])": {
        "notice": "Terminate contract and refund to ownerThe called token contracts could try to re-enter this contract. Only supply token contracts you trust."
      }
    }
  }
}